:020000040000FA
:06000000D2EF8EF01200A9
:020006001200E6
:06000800A3EF79F01200E5
:02000E000004EC
:04001000A300000049
:02001400FFFFEC
:02001600FEFEEC
:0600180046EF79F0120032
:02001E000F00D1
:100020000F1E0100E2050000010000000E1E01008D
:10003000E1050000010000000C1E0100DA050000CF
:10004000020000000B1E0100E0050000010000009E
:100050000A1E0100DF05000001000000061E01006D
:10006000790E000004000000051E0100DE050000FE
:1000700001000000031E0100D8050000020000007E
:10008000FB1D0100F402000008000000FA1D010041
:10009000DD05000001000000F91D0100DC05000085
:1000A00001000000F81D01005F0F000001000000CA
:1000B000160000007D0E000002000000F41D01008B
:1000C000750E00000400000014000000FD04000094
:0400D000020000002A
:0C00D400020145510E017D5D01E140D0AC
:1000E000FE0E7D5D1BE01C0EE66EE66A290EE66ED6
:1000F000020EE66E7D511C0DF3CF14F0F4CF15F017
:10010000000E14260E0E152214C0E6FF15C0E6FFE1
:100110008AEC82F0166E060EE15E165045C27DFE38
:10012000FE0E0201455D01E11BD01C0EE66EE66A83
:1001300045511C0DF3CF14F0F4CF15F0000E14262A
:100140000E0E152214C0E6FF15C0E6FF290EE66E5E
:10015000020EE66E8AEC82F0166E060EE15E165016
:1001600012000E017D517E5D01E14FD0FE0E7E5DDD
:1001700032E0270E0201C56FC66B0201010EC46F8B
:100180000201020EC26F020EC36F0E017E511C0DE2
:10019000F3CFE9FFF4CFEAFF000EE9260E0EEA22C4
:1001A0001B0EE926000EEA22EFCFC1F27E511C0D94
:1001B000F3CFE9FFF4CFEAFF000EE9260E0EEA22A4
:1001C000EECFBFF2EFCFC0F20201270EBF5F000EED
:1001D000C05BD1EC20F07DCE7EFE270E0201C56F04
:1001E000C66B44C2C4F229C2C2F22AC2C3F20201DF
:1001F000C25F000EC35B0201010EC16F0201020E5D
:10020000BF6F020EC06FD1EC20F012000C01660E21
:100210001D6F190E1E6F0201005101110FE164ECF8
:1002200064F006C000F207C001F2FF0E02010017E1
:10023000070E0117000E0027040E01233C0EE66E88
:10024000E66AE66AA80EE66E040EE66ED8EC82F068
:10025000146E050EE15E14500C01156B146B1451F5
:10026000146E156A040E145C000E155801E326D1B5
:1002700014CC45F22FDFC00E146E1D0E156E010E4C
:10028000166E14CC17F0186A196A060E0C6E0D6AF9
:100290000E6A17C007F018C008F019C009F09BECEF
:1002A0008DF004C017F005C018F006C019F0145006
:1002B0001724F36E15501820F46E16501920F86E9E
:1002C000F4CFF7FFF3CFF6FFF62A000EF722F8225D
:1002D0000800F5CF1CFCC00E146E1D0E156E010E2D
:1002E000166E14CC17F0186A196A060E0C6E0D6A99
:1002F0000E6A17C007F018C008F019C009F09BEC8F
:100300008DF004C017F005C018F006C019F01450A5
:100310001724F36E15501820F46E16501920F86E3D
:10032000F4CFF7FFF3CFF6FF020EF626000EF7220A
:10033000F8220900F5CF16FC0A00F5CF17FCC00E15
:10034000146E1D0E156E010E166E14CC17F0186A81
:10035000196A060E0C6E0D6A0E6A17C007F018C0F7
:1003600008F019C009F09BEC8DF004C017F005C02F
:1003700018F006C019F014501724F36E1550182009
:10038000F46E16501920F86EF4CFF7FFF3CFF6FF96
:10039000040EF626000EF722F8220900F5CF18FC0D
:1003A0000A00F5CF19FC0C011C5101E086D01DCCD0
:1003B0001AFC1ECC1BFC270E176A1625166E175149
:1003C0001722010E1626000E172216501825146E3D
:1003D00017501921156E010E1426000E1522145007
:1003E0001D2715501E231DCC14F01ECC15F0166AC7
:1003F000176AD880FE0E14541E0E1554000E1654A3
:10040000000E175401E2EFD71CCC44F2270E0C016A
:100410001A250201296F000E0C011B2102012A6F0F
:1004200029510C01162502012B6F2A510C011721AD
:1004300002012C6F010E2B27000E2C232B510C01D7
:10044000182502012D6F2C510C01192102012E6F6C
:100450000D0E3F6F409785DEC00E146E1D0E156E9B
:10046000010E166E14CC17F0186A196A060E0C6E7F
:100470000D6A0E6A17C007F018C008F019C009F01D
:100480009BEC8DF004C017F005C018F006C019F001
:1004900014501724F36E15501820F46E16501920BE
:1004A000F86EF4CFF7FFF3CFF6FF0800F5CF28F290
:1004B0001AEC17F00C01142BD2D6FFD712000C0146
:1004C0002B6B2B51146E156A040E145C000E15581C
:1004D00001E3B3D02BCC45F2FDDD0D0E02013F5DF3
:1004E00001E0A8D03EDE02014D51285D01E0A2D01E
:1004F000180E256F020E266F4A510CE14BC212F204
:100500004CC213F24087040E3F6F4BC242F24CC202
:1005100043F28DD0000E005D040E015906E3880EF3
:10052000D8800055130E015503E2006B040E016FD5
:1005300000C212F201C213F2002B000E01234BC2C3
:1005400010F24CC211F22BEC8DF006C037F207C04E
:1005500038F208C039F209C03AF2020140894A5122
:10056000040A26E0070A01E062D048514625166ECB
:1005700049514721176E16504B25146E17504C21C8
:10058000156E14501219426F15501319436F46C25D
:1005900018F247C219F248C21AF249C21BF2276B7D
:1005A000270E026F036B046B056B020E3F6F3FD08B
:1005B00046C2E9FF47C2EAFF020EE926000EEA2220
:1005C000EECF18F0EFCF19F046C2E9FF47C2EAFFBD
:1005D0001850EE24166E1950EE20176E16504B254B
:1005E000146E17504C21156E14501219426F15508D
:1005F0001319436F0A0EE66EE66A46C2E6FF47C26B
:10060000E6FF180EE66E020EE66E8AEC82F0146EBD
:10061000060EE15E14500201050E3F6F0201010E4D
:10062000AE6F0201020EAD6FC1EC10F000D00C01F4
:100630002B5105D00C012B2B44D7FE0E00D01200FD
:100640004EC245F247DD020141A903D04199010E96
:1006500002D0000E00D012004FC245F23BDD070E63
:1006600002013F5D02E0000E01D0010E00D0120039
:1006700050C245F22FDD33C235F234C236F20201E8
:100680003F51080A47E0010A45E0050A43E0020A33
:100690003EE0050A26E00D0A0EE0010A0CE0070A1A
:1006A00007E0020A05E0010A03E0060A01E032D091
:1006B0001AEC17F039D00201010EAE6F0201110ED3
:1006C000AD6FC1EC10F002011451151101E106D01B
:1006D0000E512F1902E10F513019EDE1080E3F6F55
:1006E00023D00201010EAE6F0201110EAD6FC1ECFD
:1006F00010F002011451151101E106D00E512F190D
:1007000002E10F513019EDE10C0E3F6F0DD00D0ECF
:100710003F6F0AD00201AE6B0201140EAD6FC1EC47
:1007200010F01AEC17F000D0120051C245F2D2DCE2
:100730000201409751C250F238EF03F052C245F225
:10074000C9DC0FDD0A0EE66EE66A180EE66E020ED2
:10075000E66E530EE66E020EE66E8AEC82F0146EC2
:10076000060EE15E145010C25DF211C25EF2530E2D
:10077000146E020E156E14C0F3FF15C0F4FF00D006
:1007800012005FC245F2A6DCECDC02010E512F190B
:1007900002E10F51301908E00201010EAE6F0201B3
:1007A000100EAD6FC1EC10F0120060C245F292DC89
:1007B0003FC245FC070E0C01455D06E00B0E455D92
:1007C00003E0F36AF46A2FD0020131512F5D3251F8
:1007D00030591BE329512B5D166E2C512A55176E8B
:1007E0001606000E175A31512F5D186E30513255D2
:1007F000196E1850165C146E19501758156E14C0E7
:10080000F3FF15C0F4FF0FD00ED02F51315D146EE1
:1008100032513055156E1406000E155A14C0F3FFF0
:1008200015C0F4FF00D0120061C245F253DC61C272
:1008300060F2BBDFF3CF05FCF4CF06FC0C010551E1
:10084000061103E1000E63D008D0010E051901E185
:10085000065103E161C25FF294DF02014151010BD5
:1008600014E129512B5D146E2C512A55156ED89028
:10087000153214320C010551145C0651155805E36C
:1008800061C25FF27EDF02014181010E0201C56F8C
:10089000C66B0201C46F0201620EC26F020EC36F0B
:1008A00044C2C1F22FC2BFF230C2C0F2D1EC20F07C
:1008B00002012F2B000E30232B512F5D2C5130596C
:1008C00004E329C22FF22AC230F20C01010E0519ED
:1008D00001E1065104E161C25FF253DF16D002016B
:1008E00040BB13D0408B36EC8DF006C014F007C02F
:1008F00015F0166A176A060E1426000E1522162227
:10090000172214C03BF215C03CF2010E00D01200B9
:100910000C01A86BA96B63C245F26AEC00F063C2DC
:1009200060F243DFF3CFA6FCF4CFA7FC0C01A65185
:10093000A71106E163C25FF224DFF36AF46AADD067
:10094000A6CCA4FCA7CCA5FCA6510201665D0C01B7
:10095000A7510201675904E266C2A4FC67C2A5FC64
:100960004151010B14E129512B5D146E2C512A5574
:10097000156ED890153214320C01A651145CA75193
:10098000155805E363C25FF2FCDE020141810201FA
:100990002F510C01A425146E020130510C01A52128
:1009A000156E02012B51145C2C5115582DE32F515B
:1009B0002B5D0C01A86F020130512C590C01A96F5D
:1009C000A8CCC5F2A9CCC6F20201010EC46F64C264
:1009D000C2F265C2C3F244C2C1F22FC2BFF230C23A
:1009E000C0F2D1EC20F00C01A851020164270C01E7
:1009F000A951020165230C01A851A45FA951A55B6F
:100A000029C22FF22AC230F2A4CCC5F2A5CCC6F27C
:100A10000201010EC46F64C2C2F265C2C3F244C2D5
:100A2000C1F22FC2BFF230C2C0F2D1EC20F00C01F3
:100A3000A45102012F270C01A551020130230C0102
:100A4000A6510201665D0C01A7510201675904E33A
:100A500063C25FF296DE15D040BB13D0408B36ECFC
:100A60008DF006C014F007C015F0166A176A060E5E
:100A70001426000E15221622172214C03BF215C0B0
:100A80003CF20C01A451A825146EA551A921156EA4
:100A900014C0F3FF15C0F4FF00D012000C01166B58
:100AA000176B68C245F26AEC00F068C260F27DDE46
:100AB000F3CF14FCF4CF15FC0C011451151106E111
:100AC00068C25FF25EDEF36AF46AB0D0020141519F
:100AD000010B14E129512B5D146E2C512A55156E12
:100AE000D890153214320C011451145C155115585C
:100AF00005E368C25FF245DE0201418114CC12FCBD
:100B000015CC13FC0C01145102016C5D0C01155144
:100B100002016D5904E26CC212FC6DC213FC2F512C
:100B20000C011225146E020130510C011321156EB7
:100B300002012B51145C2C51155830E32F512B5DC1
:100B40000C01166F020130512C590C01176F16CC95
:100B5000CDF217CCCEF269C2CAF26AC2CBF26BC236
:100B6000CCF244C2C9F22FC2C7F230C2C8F235EC8F
:100B700021F016CC14F017CC15F0166A14500201AF
:100B8000692715506A2316506B230C011651125F0A
:100B90001751135B29C22FF22AC230F212CCCDF2C8
:100BA00013CCCEF269C2CAF26AC2CBF26BC2CCF2EB
:100BB00044C2C9F22FC2C7F230C2C8F235EC21F0EC
:100BC0000C01125102012F270C0113510201302395
:100BD0000C01145102016C5D0C01155102016D599B
:100BE00004E368C25FF2CDDD15D040BB13D0408B6B
:100BF00036EC8DF006C014F007C015F0166A176ABF
:100C0000060E1426000E15221622172214C03BF2DF
:100C100015C03CF20C0112511625146E1351172108
:100C2000156E14C0F3FF15C0F4FF00D012006FC2A0
:100C3000E6FF70C2E6FF7EEC83F0E552E552F3CFAB
:100C400066F2F4CF67F26FC264F270C265F26EC2F0
:100C500063F25EDE02016F51F324146E7051F420D2
:100C6000156E14C0F3FF15C0F4FF00D0120072C25D
:100C7000E6FF73C2E6FF74C2E6FF8CEC83F0E55238
:100C8000E552E55207C06CF208C06DF272C269F21B
:100C900073C26AF274C26BF271C268F2FFDEF3CF04
:100CA00017F0F4CF18F0196A020172511724146E6C
:100CB00073511820156E74511920166E14C007F068
:100CC00015C008F016C009F000D0120075C245F238
:100CD0006AEC00F0020129512B5D0C01026F020148
:100CE0002A512C590C01036F010E025F000E035BA9
:100CF00075C260F25ADDF3CF00FCF4CF01FC0C01A9
:100D00000051025D146E03510155156E14C0F3FFBE
:100D100015C0F4FF00D0120076C277F218D8F3CFD6
:100D200014F0F4CF15F01450151010E076C245F20F
:100D30006AEC00F033C235F234C236F20201010E21
:100D4000AE6F0201100EAD6FC1EC10F0120077C251
:100D500045F26AEC00F002013551335D36513459E9
:100D60000CE33551335D146E34513655156E14C095
:100D7000F3FF15C0F4FF1CD01BD035512D5D166E4E
:100D80002E513655176E010E1626000E17222B51C6
:100D9000335D186E34512C55196E16501824146E8C
:100DA00017501920156E14C0F3FF15C0F4FF00D0C2
:100DB000120078C277F2CBDFF3CF39FCF4CF3AFCE4
:100DC0000C0139513A1102E1000E48D078C245F2C7
:100DD0006AEC00F0020179517A1112E0010E020171
:100DE000C56FC66B44C2C4F235C2C2F236C2C3F28A
:100DF0000201C16F79C2BFF27AC2C0F2D1EC20F019
:100E00000201352B000E362335512D5D36512E59FA
:100E100004E22BC235F22CC236F20C01010E391954
:100E200001E13A5103E10201418516D0020140BBC4
:100E300013D0408B36EC8DF006C014F007C015F0CF
:100E4000166A176A1F0E1426000E15221622172284
:100E500014C03BF215C03CF2010E00D012000C0190
:100E6000636B646B7BC277F272DFF3CF61FCF4CF0C
:100E700062FC0C016151621103E1F36AF46AA1D0D2
:100E80007BC245F26AEC00F002017E510C01615D0B
:100E900002017F510C01625904E261CC7EF262CC06
:100EA0007FF2020135517E25146E36517F21156E79
:100EB00014502D5D15502E5938E235512D5D0C0121
:100EC000636F020136512E590C01646F010E6327C6
:100ED000000E642302017C517D111BE063CCC5F23E
:100EE00064CCC6F244C2C4F235C2C2F236C2C3F206
:100EF0000201010EC16F7CC2BFF27DC2C0F2D1EC13
:100F000020F00C01635102017C270C0164510201A5
:100F10007D230C01635102017E5F0C0164510201CB
:100F20007F5B2BC235F22CC236F27C517D1113E06F
:100F30007EC2C5F27FC2C6F244C2C4F235C2C2F25A
:100F400036C2C3F20201010EC16F7CC2BFF27DC284
:100F5000C0F2D1EC20F002017E5135277F513623BB
:100F60000C01635102017E270C01645102017F23B1
:100F70007E510C01615D146E625102017F55156E48
:100F800014507E5D15507F5902E3418515D040BB5A
:100F900013D0408B36EC8DF006C014F007C015F06E
:100FA000166A176A1F0E1426000E15221622172223
:100FB00014C03BF215C03CF27EC2F3FF7FC2F4FFC7
:100FC00000D0120080C245F26AEC00F002012B5101
:100FD0002D5D0C013B6F02012C512E590C013C6F11
:100FE00080C277F2B4DEF3CF39FCF4CF3AFC0C01C7
:100FF00039513B5D146E3C513A55156E14C0F3FFE8
:1010000015C0F4FF00D0120002018451851103E1E4
:10101000F36AF46AABD081C245F26AEC00F081C297
:1010200077F295DEF3CF02FCF4CF03FC0201865188
:101030008425146E87518521156E0C011450025DB4
:10104000155003590BE2020186510C01025D0201A9
:10105000846F87510C0103590201856F02013551DC
:1010600086250C01006F0201365187210C01016FAA
:10107000005102012D5D0C01015102012E590FE2B8
:101080002B512D5D146E2E512C55156E010E14260C
:10109000000E152214500C01005F1550015B0C016D
:1010A000005102012D5D0C01046F015102012E5906
:1010B0000C01056F010E0427000E05230201845167
:1010C0000C01045D020185510C01055914E384C231
:1010D000C5F285C2C6F244C2C4F200CCC2F201CC51
:1010E000C3F20201010EC16F82C2BFF283C2C0F21D
:1010F000D1EC20F036D004CCC5F205CCC6F244C207
:10110000C4F200CCC2F201CCC3F20201010EC16FE5
:1011100082C2BFF283C2C0F2D1EC20F00C010451B4
:101120000201845D0201C56F0C0105510201855960
:101130000201C66F44C2C4F22BC2C2F22CC2C3F277
:101140000201010EC16F020182510C01042502014E
:10115000BF6F020183510C0105210201C06FD1EC68
:1011600020F084C2F3FF85C2F4FF00D0120089C2D0
:1011700086F28AC287F2010E0201846F856B02013A
:10118000060E826F0C0E836F88C281F23DDF0C0168
:10119000065100D0120002018E518F1103E1F36A53
:1011A000F46AB2D18BC245F26AEC00F08BC277F2DE
:1011B000CEDD02019051F35C0C013B6F02019151B5
:1011C000F4580C013C6F02018E510C013B5D020191
:1011D0008F510C013C5903E2F368F46895D1020188
:1011E000925193110DE00C013B510201925D0C01F3
:1011F0003C510201935904E292C23BFC93C23CFC75
:10120000355190250C013F6F0201365191210C019F
:10121000406F3F5102012D5D0C01405102012E59DA
:101220000FE22B512D5D146E2E512C55156E010EB3
:101230001426000E152214500C013F5F1550405B20
:101240003FCC39FC40CC3AFC0C013F5102012D5DF2
:101250000C013D6F405102012E590C013E6F010EF1
:101260003D27000E3E2390C23FFC91C240FC8EC23F
:1012700041FC8FC242FC8CC243FC8DC244FC020183
:101280008CC2E9FF8DC2EAFF8C2B8D23EFCF46FC89
:101290000C01486B0201945109E0610E0C01465D9E
:1012A00005E346517A0802E3E00E46270C01200EC2
:1012B000476F47513D5D000E3E5902E23DCC47FC71
:1012C00047513B5D000E3C5902E23BCC47FC475185
:1012D0000201C56FC66B44C2C4F239CCC2F23ACC2B
:1012E000C3F20201010EC16F0201490EBF6F0C0E65
:1012F000C06FD1EC20F00C014751146E156A1450E8
:10130000392715503A234751146E156A14503D5F22
:1013100015503E5B3D513E1106E12BC239FC2CC2FB
:101320003AFC3D693E690201945101E181D00C0112
:10133000456B4751455D01E37AD04551EA6A490F53
:10134000E96E0C0EEA22EFCF14F0610E145C13E389
:101350004551EA6A490FE96E0C0EEA22EF507A080D
:101360000AE3E00E146E4551EA6A490FE96E0C0E6D
:10137000EA221450EF264551EA6A490FE96E0C0E35
:10138000EA22EF50465D33E102018E07000E8F5BCB
:101390008E518F1117E10C0141513F5D166E405186
:1013A0004255176E455100011624146E000E172089
:1013B000156E010E1426000E152214C0F3FF15C081
:1013C000F4FFA2D08CC2E9FF8DC2EAFF8C2B000E85
:1013D0008D23EFCF46FC0C01010E486F610E465D78
:1013E00005E346517A0802E3E00E46271ED041CCC1
:1013F0008EF242CC8FF2485118E043CC8CF244CCB0
:101400008DF202018CC2E9FF8DC2EAFF8C2B000E27
:101410008D23EFCF46FC610E0C01465D05E346517E
:101420007A0802E3E00E4627486B452B82D751D05D
:101430000C01456B4751455D4CE24551EA6A490F45
:10144000E96E0C0EEA22EF50465D2BE102018E0799
:10145000000E8F5B8E518F1117E10C0141513F5DE2
:10146000166E40514255176E455100011624146EF8
:10147000000E1720156E010E1426000E152214C042
:10148000F3FF15C0F4FF40D08CC2E9FF8DC2EAFF24
:101490008C2B000E8D23EFCF46FC0C01010E486F04
:1014A00016D041CC8EF242CC8FF2485110E043CCA2
:1014B0008CF244CC8DF202018CC2E9FF8DC2EAFFAE
:1014C0008C2B000E8D23EFCF46FC0C01486B452B77
:1014D000B1D74751146E156A14503B5F15503C5BF1
:1014E00002018E510C013B5D02018F510C013C59F0
:1014F00003E2F368F46808D04751146E156A14507B
:101500003F2715504023D2D61200020199519A115B
:1015100003E1F36AF46ACCD195C245F26AEC00F0BB
:1015200095C277F214DC02019B51F35C0C01026F4F
:1015300002019C51F4580C01036F020199510C01F6
:10154000025D02019A510C01035903E2F368F46849
:10155000AFD102019D519E110DE00C01025102011B
:101560009D5D0C01035102019E5904E29DC202FCE3
:101570009EC203FC35519B250C01066F02013651BA
:101580009C210C01076F065102012D5D0C010751D2
:1015900002012E590FE22B512D5D146E2E512C5548
:1015A000156E010E1426000E152214500C01065F54
:1015B0001550075B06CC00FC07CC01FC0C01065162
:1015C00002012D5D0C01046F075102012E590C011F
:1015D000056F010E0427000E05239BC206FC9CC26A
:1015E00007FC99C208FC9AC209FC96C20AFC97C281
:1015F0000BFC98C20CFC020196C2F6FF962B97C218
:10160000F7FF972398C2F8FF98230800F5CF0EFC48
:101610000C01106B02019F5109E0610E0C010E5D7F
:1016200005E30E517A0802E3E00E0E270C01200EAE
:101630000F6F0F51045D000E055902E204CC0FFC40
:101640000F51025D000E035902E202CC0FFC0F5154
:101650000201C56FC66B44C2C4F200CCC2F201CC19
:10166000C3F20201010EC16F0201110EBF6F0C0E19
:10167000C06FD1EC20F00C010F51146E156A14509C
:101680000027155001230F51146E156A1450045F82
:101690001550055B0451051106E12BC200FC2CC25C
:1016A00001FC0469056902019F5101E18BD00C0125
:1016B0000D6B0F510D5D01E384D00D51EA6A110FDE
:1016C000E96E0C0EEA22EFCF14F0610E145C13E306
:1016D0000D51EA6A110FE96E0C0EEA22EF507A08FA
:1016E0000AE3E00E146E0D51EA6A110FE96E0C0E5A
:1016F000EA221450EF260D51EA6A110FE96E0C0E22
:10170000EA22EF500E5D37E102019907000E9A5B65
:1017100099519A1117E10C010851065D166E075197
:101720000955176E0D5100011624146E000E172076
:10173000156E010E1426000E152214C0F3FF15C0FD
:10174000F4FFB6D096C2F6FF962B97C2F7FF000EB5
:10175000972398C2F8FF98230800F5CF0EFC0C01E0
:10176000010E106F610E0E5D05E30E517A0802E363
:10177000E00E0E2724D008CC99F209CC9AF2105131
:101780001EE00ACC96F20BCC97F20CCC98F2020138
:1017900096C2F6FF962B97C2F7FF000E972398C2CA
:1017A000F8FF98230800F5CF0EFC610E0C010E5DCA
:1017B00005E30E517A0802E3E00E0E27106B0D2BA5
:1017C00078D75BD00C010D6B0F510D5D56E20D51BA
:1017D000EA6A110FE96E0C0EEA22EF500E5D2FE15E
:1017E00002019907000E9A5B99519A1117E10C01B9
:1017F0000851065D166E07510955176E0D5100010F
:101800001624146E000E1720156E010E1426000EFD
:10181000152214C0F3FF15C0F4FF4AD096C2F6FF9C
:10182000962B97C2F7FF000E972398C2F8FF9823D4
:101830000800F5CF0EFC0C01010E106F1CD008CC77
:1018400099F209CC9AF2105116E00ACC96F20BCC20
:1018500097F20CCC98F2020196C2F6FF962B97C233
:10186000F7FF000E972398C2F8FF98230800F5CFE2
:101870000EFC0C01106B0D2BA7D70F51146E156ABF
:101880001450025F1550035B020199510C01025D77
:1018900002019A510C01035903E2F368F46808D07D
:1018A0000F51146E156A1450062715500723BED623
:1018B0001200A6C294F2A4C292F2A5C293F2A2C2EE
:1018C00090F2A3C291F2010E02018E6F8F6B0201A2
:1018D000A10E8C6F020E8D6FA0C28BF25CDC00D06B
:1018E00012000C011C6B1C51146E156A040E145C62
:1018F000000E155801E300D31CCC45F26AEC00F051
:101900000C011F6B1D6B1E6B02014151020B03E1A9
:101910004151040B0EE0F9EC55F000090AE00C010E
:10192000100E1F6F02014151040B01E0010E0C016A
:101930001D6F020140AB13D036EC8DF00201065052
:101940003B5D146E07503C59156E153404E214507B
:101950000008000E155403E30C01100E1F6F020166
:1019600040AD13D036EC8DF0020106503D5D146E93
:1019700007503E59156E153404E214500008000E4D
:10198000155403E30C01100E1F6F0B0E02013F5D97
:1019900016E136EC8DF0020106503D5D146E0750E5
:1019A0003E59156E153404E214500008000E15540B
:1019B00006E30C01110E1F6F02010C0E3F6F040EA7
:1019C0003F5D01E00AD10C01206B216B030E205D0D
:1019D000000E215901E301D120CCE9FF21CCEAFF1F
:1019E000140EEA02F3CFEAFFE902F3CFE9FFF45065
:1019F000EA26A80EE926040EEA22100EE926000EB9
:101A0000EA22EE50ED1001E1E8D020CCE9FF21CC34
:101A1000EAFF140EEA02F3CFEAFFE902F3CFE9FF8F
:101A2000F450EA26A80EE926040EEA22100EE92652
:101A3000000EEA22EECF14F0EFCF15F00201425172
:101A4000141802E14351151801E0C2D0B1EC00F0C6
:101A50000A0EE66EE66A20CCE9FF21CCEAFF140EFE
:101A6000EA02F3CFEAFFE902F3CFE9FFF450EA26F6
:101A7000A80EE926040EEA22E9CF14F0EACF15F009
:101A800014C0E6FF15C0E6FF180EE66E020EE66E05
:101A90008AEC82F0166E060EE15E165020CCE9FF4D
:101AA00021CCEAFF140EEA02F3CFEAFFE902F3CFFA
:101AB000E9FFF450EA26A80EE926040EEA220A0EEF
:101AC000E926000EEA22EECF10F2EDCF11F220CC83
:101AD000E9FF21CCEAFF140EEA02F3CFEAFFE902A4
:101AE000F3CFE9FFF450EA26A80EE926040EEA2215
:101AF0000C0EE926000EEA22EECF0AF2EECF0BF230
:101B0000EECF0CF2EFCF0DF202010A2B0B230C23C8
:101B10000D231A511825166E1B511921176E1650D8
:101B20001025146E17501121156E14501219426FA2
:101B300015501319436F0C01120E1F6F0201060E90
:101B40003F6F20CCC5F221CCC6F20201020ED88034
:101B5000C557000EC657140EC603F3CFC6F2C50311
:101B6000F3CFC5F2F450C6270201010EC46F0C0179
:101B700020250201C26F000E0C0121210201C36F5A
:101B8000140EC303F3CFC3F2C203F3CFC2F2F45077
:101B9000C327A80EC227040EC3230201010EC16F82
:101BA000140E086E096A20CC0DF021CC0EF07DECED
:101BB0008DF006C0BFF207C0C0F2A80E0201BF2719
:101BC000040EC023D1EC20F00401E06BE16B05D0E2
:101BD0000C01202B000E2123F9D60C011F510AE025
:101BE0001D5102E0000E01D0010E0201AE6F1FCCAC
:101BF000ADF2C7DA020140B94ED0070E3F5D4AE1AF
:101C00002BEC8DF002013751065C146E38510758E9
:101C1000156E39510858166E3A510958176E000161
:101C2000800E171401E065D102014051070B060830
:101C300015E14051080B01E0010E0C011F6F1CCC97
:101C400050F238EC03F01CCC50F238EC03F00C01ED
:101C50001F5103E102010E0E3F6F4BD1B1EC00F0BA
:101C60000201020EAE6F0201100EAD6F8ADA2BEC8C
:101C70008DF006C037F207C038F208C039F209C04B
:101C80003AF2740E02013727350E3823060E392337
:101C9000000E3A232ED12BEC8DF002013751065C59
:101CA000146E38510758156E39510858166E3A514E
:101CB0000958176E0001800E171401E01AD1B1EC1B
:101CC00000F002013F510C0A01E1B2D0060A01E125
:101CD000A0D0030A01E197D0010A01E185D00F0AE3
:101CE00074E00C0A72E00D0A5BE0030A46E0060AA3
:101CF00014E0010A01E0ABD036EC8DF006C03BF2F7
:101D000007C03CF20501180ED06F020ED16FCAEC6D
:101D10007FF00201030E3F6F9AD005011C0ED46FB5
:101D2000020ED56F0501180ED26F020ED36F0EECA6
:101D300080F000091AE136EC8DF002013B51065C9F
:101D4000146E3C510758156E1450025D155003591E
:101D50000BE2060E275D06E2272BD89002370337E9
:101D600004370537020E3F6F72D00C01020E1F6F51
:101D70001D6B0201050E3F6F6AD00C01020E1F6F32
:101D8000010E1D6F040E0201275D09E3040E276F8B
:101D9000200E026FEF0E036F090E046F056B57D014
:101DA000020E275D06E20C01120E1F6F010E1D6F61
:101DB0000BD040A706D00C01140E1F6F010E1E6F32
:101DC00003D00C01020E1F6F42D0050E275D06E204
:101DD0000C01100E1F6F010E1D6F05D0080E3F6F16
:101DE0000C01110E1F6F33D0050E275D06E20C01AA
:101DF000110E1F6F010E1D6F05D00C01140E1F6F09
:101E0000010E1E6F24D00C01140E1F6F010E1E6FE9
:101E10001ED0050E275D06E20C01100E1F6F010E8D
:101E20001D6F05D00C01140E1F6F010E1E6F0FD019
:101E3000050E275D06E20C01110E1F6F010E1D6FCE
:101E400005D00C01140E1F6F010E1E6F00D00C0187
:101E50001F514AE01D5142E00201272BD890023762
:101E600003370437053731510E5D0C01206F020135
:101E700032510F590C01216F020131510E5D325167
:101E80000F590BE229512B5D146E2C512A55156EFA
:101E900014500C0120271550212320CC14F021CC04
:101EA00015F0166A176A14500201065F1550075B99
:101EB0001650085B1750095B0C01205102011427D2
:101EC0000C0121510201152331C20EF232C20FF270
:101ED0000201AE6B1FCCADF254D906D00201010E47
:101EE000AE6F1FCCADF24DD90C011E5102E01AECC1
:101EF00017F00C011C2BF7D4206B216B030E205D17
:101F0000000E215901E399D020CCE9FF21CCEAFF52
:101F1000140EEA02F3CFEAFFE902F3CFE9FFF4502F
:101F2000EA26A80EE926040EEA22100EE926000E83
:101F3000EA22EE50ED1001E180D020CCE9FF21CC67
:101F4000EAFF140EEA02F3CFEAFFE902F3CFE9FF5A
:101F5000F450EA26A80EE926040EEA22120EE9261B
:101F6000000EEA22EECF16F0EFCF17F016C0E6FF14
:101F700017C0E6FF36EC8DF0E552E7CF17F0E552DB
:101F8000E7CF16F01650065C146E17500758156E02
:101F9000DC0ED8801454010E15544AE220CCC5F250
:101FA00021CCC6F20201020ED880C557000EC657DA
:101FB000140EC603F3CFC6F2C503F3CFC5F2F45037
:101FC000C6270201010EC46F0C0120250201C26F59
:101FD000000E0C0121210201C36F140EC303F3CFC5
:101FE000C3F2C203F3CFC2F2F450C327A80EC22734
:101FF000040EC3230201010EC16F140E086E096A9C
:1020000020CC0DF021CC0EF07DEC8DF006C0BFF29F
:1020100007C0C0F2A80E0201BF27040EC023D1ECF6
:1020200020F00401E06BE16B0C012007000E215B46
:102030000C01202B000E212361D71200A7C2E9FF5B
:10204000A8C2EAFFEECF14FCEECF15FCEECF16FCD3
:10205000EFCF17FCA9C2E9FFAAC2EAFFEECF18FC36
:10206000EECF19FCEECF1AFCEFCF1BFC0C011C6B62
:10207000060E1D6FABC21EFCACC21FFC1ECC22F5AF
:102080001FCC23F56EEC68F0F3CF1EFCF4CF1FFCE1
:102090000C0E05012A6F2B6B0501140E286F0C0E18
:1020A000296F95EC68F0F3CF20FCF4CF21FC0C01F4
:1020B000201F211FABC283F4ACC284F482EC59F020
:1020C000F3CF22FCF4CF23FC0C012251201902E1B2
:1020D0002351211904E007EC56F0010E51D00F01F5
:1020E000516B526B6FEC87F0140E04018D6F8E6B89
:1020F0000401000E8B6F0C0E8C6F9BEC5BF00201E9
:10210000000EB36F0C0EB46F3FEC16F00C010C51C7
:10211000F00BE842E842E842E842040DF350146E46
:10212000156A140E145E000E155A14C024FC2451B6
:10213000146E156A14500201AB5DAB6F1550AC59AB
:10214000AC6F140EAB5F000EAC5BA7C2B1F2A8C2BD
:10215000B2F20201000EAF6F0C0EB06FE6DA0009AA
:102160000BE0ABC2B7F2ACC2B8F20201000EB56F21
:102170000C0EB66FE3EC17F007EC56F0010E00D032
:102180001200B1EC00F00201ADA102D04187AD9187
:10219000409B409D409F419341954191F9EC55F002
:1021A000000901E1FBD7060E0201AD1504E00C01A8
:1021B0006B6B6C6BFBD00E512F1902E10F51301974
:1021C00004E10C016B6B6C6BD9D02F510E5D30515B
:1021D0000F593FE20E512F5D0C016B6F02010F5141
:1021E00030590C016C6F6B510201145D0C016C5184
:1021F0000201155904E214C26BFC15C26CFC0C01FF
:102200006B510201255D0C016C510201265905E25A
:1022100025C26BFC26C26CFC41856BCCC5F26CCC34
:10222000C6F244C2C4F20EC2C2F20FC2C3F202012D
:10223000C16B0201AB0EBF6F130EC06FD1EC20F06B
:102240000C016B5102010E270C016C5102010F238E
:1022500095D00E512B5D0C01696F02010F512C5965
:102260000C016A6F695102012F25146E0C016A512D
:1022700002013021156E2951145C0C016B6F0201B3
:102280002A5115580C016C6F6B510201145D0C0141
:102290006C510201155904E214C26BFC15C26CFCAE
:1022A0000C016B510201255D0C016C510201265994
:1022B00005E225C26BFC26C26CFC41850C0169510C
:1022C0006B5D6A516C5904E26BCC69FC6CCC6AFCA6
:1022D00069CCC5F26ACCC6F244C2C4F20EC2C2F2E4
:1022E0000FC2C3F20201C16B0201AB0EBF6F130E2E
:1022F000C06FD1EC20F00C0169516B5D696F6A51C0
:102300006C596A6F69516A1122E069CCC5F26ACCD6
:10231000C6F244C2C4F229C2C2F22AC2C3F2020106
:10232000C16B02010E512B5D146E2C510F55156EB1
:10233000166A176AAB0E1426130E1522000E16220B
:10234000172214C0BFF215C0C0F2D1EC20F00C016E
:102350006B5102010E270C016C5102010F232B510E
:102360000E5D2C510F590AE329512B5D146E2C512F
:102370002A55156E14500E5F15500F5B020141A7D0
:1023800015D014510C016B1904E1020115510C0117
:102390006C190CE0020125510C016B1904E10201DA
:1023A00026510C016C1902E00201AD810C016B5148
:1023B0006C1104E1030E0201AD1529E00C016B5113
:1023C0000201145F0C016C510201155B0C016B5191
:1023D0006C1102E00201AD870201AEA107D0276BAC
:1023E000F20E026F9E0E036F046B056B2BEC8DF0EB
:1023F000065002010225376F07500321386F08503D
:102400000421396F095005213A6F408938D0AEA3B5
:102410001BD0400EE96E020EEA6EEF50070BE82A61
:10242000F36EF350070BF36EF46EF80EEF14F31027
:10243000EF6EF4500607000E075B085B095B010EA8
:102440000C016B6F6C6B1BD040A919D0AEB108D0DA
:10245000275106E02707D8900533043303330233AE
:102460002BEC8DF0065002010225376F0750032137
:10247000386F08500421396F095005213A6F12C294
:1024800047FC13C248FC10C249FC11C24AFC06C2F8
:102490004BFC07C24CFC08C24DFC09C24EFC0AC2F0
:1024A0004FFC0BC250FC0CC251FC0DC252FC0C0183
:1024B000549D549F5391539353955397ADC254FCDD
:1024C000596B5A6B6B51020106270C016C510201CA
:1024D0000723000E08230923ADA315D0ADB905D0FD
:1024E0000C014F6B506B516B526B020124A306D051
:1024F0000C014B074C5B4D5B4E5B05D0062B072355
:102500000823092324830201ADA10DD024A106D004
:102510000C014B074C5B4D5B4E5B05D0062B072334
:1025200008230923248102013551335D3651345982
:1025300014E32B512D5D146E2E512C55156E355113
:10254000335D166E34513655176E0C011650145CFF
:10255000556F17501558566F0DD03351355D0C011E
:10256000556F0201345136590C01566F010E555FFB
:10257000000E565B40EC56F0F3CF45FCF4CF46FC22
:102580000C01400E455D000E465903E2456B466B5B
:1025900004D0400E455F000E465B5551455D5651D7
:1025A000465904E245CC55FC46CC56FC0201470E88
:1025B000B36F0C0EB46F63DB140E0C016B27000EAF
:1025C0006C235389539B538D539F0201ADA326D097
:1025D000040E0C016B27000E6C23020E5B6F040EC1
:1025E0005C6F020E5D6F180E5E6F010E146E530E5F
:1025F000E96E0C0EEA6EEF50F00BE842E842E8425A
:10260000E84214240F0BF36EF46EF346F346F346E0
:10261000F3460F0EEF14F310EF6EF45000CF5FFC93
:1026200001CF60FC02CF61FC03CF62FC18C263FCE7
:1026300019C264FC1AC265FC1BC266FC0C01676B04
:10264000060E686F6BCC69FC6CCC6AFC69CC22F519
:102650006ACC23F56EEC68F0F3CF69FCF4CF6AFC2A
:102660000C0E05012A6F2B6B05015F0E286F0C0EF7
:10267000296F95EC68F0F3CF57FCF4CF58FC0C01B0
:10268000571F581F0401830E7B6F130E7C6FEEECF7
:1026900058F06BCC4FFF6CCC50FF0F01060E4E6F05
:1026A0000F01180E4C6F020E4D6FFBEC86F0140EEE
:1026B0000401926F936B0401470E906F0C0E916FA3
:1026C000EBEC5BF00201ADA30BD0040E0401926FA2
:1026D000936B04015B0E906F0C0E916FEBEC5BF053
:1026E0000401970E7D6F130E7E6F0EEC59F06BCCCC
:1026F00083F46CCC84F482EC59F0F3CF45FCF4CF36
:1027000046FC0401A70E7B6F130E7C6FEEEC58F0B5
:10271000020E0401926F936B0401450E906F0C0E34
:10272000916FEBEC5BF0BEEF57F0AFC2E9FFB0C2C8
:10273000EAFF020EE926000EEA22EE50ED1002E159
:10274000000E9CD20C01FE0E266FB1C2E9FFB2C290
:10275000EAFF020EE926000EEA22EECF18F0EFCFD4
:1027600019F0B1C2E9FFB2C2EAFF1850EE24166EAA
:102770001950EE20176EAFC2E9FFB0C2EAFF165043
:10278000EE24146E1750EE20156EAFC2E9FFB0C2F2
:10279000EAFF020EE926000EEA221450EE18276F17
:1027A0001550EE18286F256B2551146E156A040E0E
:1027B000145C000E155867E225CC45F26AEC00F077
:1027C0000D0E02013F5D02E15BD024D0040E3F5D9F
:1027D00016E1AFC2E9FFB0C2EAFF020EE926000E21
:1027E000EA22EECF14F0EFCF15F01450421902E1B7
:1027F0001550431902E125CC26FC42D00BD00C0128
:1028000027510201421904E10C0128510201431928
:1028100001E036D0B1EC00F0AFC2E9FFB0C2EAFF90
:10282000020EE926000EEA22EECF14F0EFCF15F0EB
:1028300002011251141802E11351151821E1AFC21F
:10284000E9FFB0C2EAFFEECF16F0EFCF17F010515C
:10285000161802E11151171813E1B1C2E9FFB2C213
:10286000EAFFEE50181909E1EE50191906E1EE5091
:102870001A1903E1EE501B1900E102E1010EFED12D
:102880000C01252B91D7FE0E265D39E026CC45F2B2
:102890006AEC00F0B1EC00F0FE0E0C01265D2FE0BA
:1028A00027CC42F228CC43F20A0EE66EE66AB1C2A9
:1028B000E6FFB2C2E6FF180EE66E020EE66E8AEC86
:1028C00082F0146E060EE15E1450AFC2E9FFB0C292
:1028D000EAFFEECF10F2EDCF11F2AFC2E9FFB0C2C6
:1028E000EAFF020EE926000EEA22EECF12F2EDCF49
:1028F00013F229C20EF22AC20FF2010EBFD1AFC2EB
:10290000E9FFB0C2EAFF0D0EE926000EEA22EF5001
:10291000020B02E1000EB2D10401E051E11102E02C
:10292000000EACD10C01296B2A6B030E295D000E41
:102930002A5901E3BED029CCE9FF2ACCEAFF140EC4
:10294000EA02F3CFEAFFE902F3CFE9FFF450EA2607
:10295000A80EE926040EEA22100EE926000EEA224D
:10296000EE50ED1001E1A5D029CCE9FF2ACCEAFF19
:10297000140EEA02F3CFEAFFE902F3CFE9FFF450C5
:10298000EA26A80EE926040EEA22100EE926000E19
:10299000EA22EECF14F0EFCF15F0AFC2E9FFB0C2DC
:1029A000EAFF020EE926000EEA22EECF16F0EFCF84
:1029B00017F01650141802E11750151801E074D0E2
:1029C00029CCE9FF2ACCEAFF140EEA02F3CFEAFF92
:1029D000E902F3CFE9FFF450EA26A80EE926040E37
:1029E000EA220A0EE926000EEA22EECF14F0EFCF1B
:1029F00015F0AFC2E9FFB0C2EAFFEECF16F0EFCF9D
:102A000017F01650141802E11750151801E04CD0B9
:102A1000B1C2E9FFB2C2EAFFEECF14F0EECF15F07B
:102A2000EECF16F0EFCF17F029CCE9FF2ACCEAFF62
:102A3000140EEA02F3CFEAFFE902F3CFE9FFF45004
:102A4000EA26A80EE926040EEA22EE500001141828
:102A500009E1EE50151806E1EE50161803E1EE50AC
:102A6000171800E101E020D036EC8DF006C014F01C
:102A700007C015F029CCE9FF2ACCEAFF140EEA02C0
:102A8000F3CFEAFFE902F3CFE9FFF450EA26A80EFC
:102A9000E926040EEA22120EE926000EEA2214C0EC
:102AA000EEFF15C0EDFFEAD00C01292B000E2A2302
:102AB0003CD7256B2551146E156A040E145C000E6C
:102AC000155801E3D9D025CC45F26AEC00F002019B
:102AD00040A7CFD0B1EC00F0AFC2E9FFB0C2EAFF2F
:102AE000020EE926000EEA22EECF14F0EFCF15F029
:102AF00014500201121902E11550131901E0B9D066
:102B00000A0EE66EE66AB1C2E6FFB2C2E6FF29CC63
:102B1000E9FF2ACCEAFF140EEA02F3CFEAFFE9024A
:102B2000F3CFE9FFF450EA26A80EE926040EEA22C4
:102B3000E9CF14F0EACF15F014C0E6FF15C0E6FFA8
:102B40008AEC82F0166E060EE15E1650AFC2E9FF07
:102B5000B0C2EAFFEECF14F0EFCF15F029CCE9FFB9
:102B60002ACCEAFF140EEA02F3CFEAFFE902F3CF20
:102B7000E9FFF450EA26A80EE926040EEA220A0E1E
:102B8000E926000EEA2214C0EEFF15C0EDFFAFC229
:102B9000E9FFB0C2EAFF040EE926000EEA22EECFFA
:102BA00014F0EECF15F0EECF16F0EFCF17F029CCE2
:102BB000E9FF2ACCEAFF140EEA02F3CFEAFFE902AA
:102BC000F3CFE9FFF450EA26A80EE926040EEA2224
:102BD0000C0EE926000EEA2214C0EEFF15C0EEFF2F
:102BE00016C0EEFF17C0EEFFAFC2E9FFB0C2EAFFAA
:102BF000020EE926000EEA22EECF14F0EFCF15F018
:102C000029CCE9FF2ACCEAFF140EEA02F3CFEAFF4F
:102C1000E902F3CFE9FFF450EA26A80EE926040EF4
:102C2000EA22100EE926000EEA2214C0EEFF15C0BB
:102C3000EDFF36EC8DF006C014F007C015F029CC7E
:102C4000E9FF2ACCEAFF140EEA02F3CFEAFFE90219
:102C5000F3CFE9FFF450EA26A80EE926040EEA2293
:102C6000120EE926000EEA2214C0EEFF15C0EDFF99
:102C700005D00C01252B1ED7000E00D01200B3C2C8
:102C8000E9FFB4C2EAFFEECF22F5EDCF23F56EECFB
:102C900068F0F3CF14F0F4CF15F0B3C2E9FFB4C27B
:102CA000EAFF14C0EEFF15C0EDFFB3C2E9FFB4C2E6
:102CB000EAFF020EE926000EEA22EECF22F5EDCF62
:102CC00023F56EEC68F0F3CF14F0F4CF15F0B3C237
:102CD000E9FFB4C2EAFF020E14C0EBFF030E15C0F9
:102CE000EBFFB3C2E9FFB4C2EAFF040EE926000E0F
:102CF000EA22EECF24F5EECF25F5EECF26F5EFCF85
:102D000027F57EEC68F006C014F007C015F008C087
:102D100016F009C017F0B3C2E9FFB4C2EAFF040E0F
:102D2000E926000EEA2214C0EEFF15C0EEFF16C021
:102D3000EEFF17C0EEFFB3C2E9FFB4C2EAFF080E10
:102D4000E926000EEA22EECF24F5EECF25F5EECFF0
:102D500026F5EFCF27F57EEC68F006C014F007C02B
:102D600015F008C016F009C017F0B3C2E9FFB4C2ED
:102D7000EAFF080EE926000EEA2214C0EEFF15C095
:102D8000EEFF16C0EEFF17C0EEFFB3C2E9FFB4C2FC
:102D9000EAFF0E0EE926000EEA22EECF22F5EDCF75
:102DA00023F56EEC68F0F3CF14F0F4CF15F0B3C256
:102DB000E9FFB4C2EAFF0E0E14C0EBFF0F0E15C000
:102DC000EBFFB3C2E9FFB4C2EAFF100EE926000E22
:102DD000EA22EECF22F5EDCF23F56EEC68F0F3CFCB
:102DE00014F0F4CF15F0B3C2E9FFB4C2EAFF100E3D
:102DF00014C0EBFF110E15C0EBFFB3C2E9FFB4C264
:102E0000EAFF120EE926000EEA22EECF22F5EDCF00
:102E100023F56EEC68F0F3CF14F0F4CF15F0B3C2E5
:102E2000E9FFB4C2EAFF120E14C0EBFF130E15C087
:102E3000EBFF1200B1EC00F012C242F213C243F2F7
:102E400029C22FF22AC230F229C231F22AC232F24A
:102E50002BC233F22CC234F22BC235F22CC236F222
:102E600002014051080B02E0040E01D00D0E3F6F2D
:102E70004091409340954099409B409D409F419197
:102E80004193419541974189249124932497249912
:102E900029C20EF22AC20FF221EC64F0F3CF06F23F
:102EA000F4CF07F221EC64F0F3CF08F2F4CF09F28B
:102EB000020122692369010E146F156B12000C0EBA
:102EC0000F01516F526B6FEC87F087EC5BF00C01D8
:102ED000416FF00E4115E840E8403F0B146E156A53
:102EE000140E145E000E155A14C041FC415105E148
:102EF000180EF36E020EF46E65D0070E04018D6F8E
:102F00008E6B04018B6B8C6B9BEC5BF00C01415165
:102F10004107000952E087EC5BF00C01426F42511F
:102F200001E14BD0420501E1F1D7020E425D2CE1F7
:102F3000030E415D01E241D0436B446B87EC5BF0D3
:102F40000C01426F040E425D08E187EC5BF00C015E
:102F5000446F87EC5BF00C01436F180E435D020E6B
:102F6000445901E22AD0B40ED8804355050E445589
:102F700006E2B40EF36E050EF46E24D01DD043CCE1
:102F8000F3FF44CCF4FF1ED0020E415D01E215D0E8
:102F900087EC5BF00C01426F4251415D01E20DD0C4
:102FA000425104018D6F8E6B04018B6B8C6B9BEC1B
:102FB0005BF00C014251415FA9D7180EF36E020E6F
:102FC000F46E00D01200B5C2E9FFB6C2EAFF0D0EE2
:102FD000E926000EEA22EFCF33FCB5C2E9FFB6C204
:102FE000EAFF080EE926000EEA22EECF34FCEECF0F
:102FF00035FCEECF36FCEFCF37FCB5C2E9FFB6C2E9
:10300000EAFF040EE926000EEA22EECF38FCEECFEE
:1030100039FCEECF3AFCEFCF3BFC020140914093EC
:10302000409540B913D02BEC8DF006C037F207C0A5
:1030300038F208C039F209C03AF2740E020137279B
:10304000350E3823060E3923000E3A233F51050A68
:1030500048E0010A08E0B7C23CFCB8C23DFC0C01E4
:1030600033A1CFD0CBD00C0133A503D0E3DEA4EF46
:103070001FF033A912D034CC06F235CC07F236CC8F
:1030800008F237CC09F20201AE6B0201040EAD6FFB
:10309000C1EC10F0CFDEA4EF1FF033A31FD038CC6B
:1030A0000AF239CC0BF23ACC0CF23BCC0DF2020115
:1030B0000A2B000E0B230C230D2301DFF3CF25F287
:1030C000F4CF26F20201010EAE6F0201120EAD6FB7
:1030D000C1EC10F00201060E3F6F01D0ABDEA4EF91
:1030E0001FF00C0133A502D0A4EF1FF033A934D098
:1030F000340EE96E0C0EEA6EEE500201061909E17B
:10310000EE50071906E1EE50081903E1EE500919D7
:1031100000E122E006C238FC07C239FC08C23AFCD2
:1031200009C23BFC34CC06F235CC07F236CC08F2AF
:1031300037CC09F20201010EAE6F0201040EAD6F31
:10314000C1EC10F038CC06F239CC07F23ACC08F2D8
:103150003BCC09F2A4EF1FF00C0133A34DD038CCC7
:103160000AF239CC0BF23ACC0CF23BCC0DF2020154
:103170000A2B000E0B230C230D23B5C2E9FFB6C2A8
:10318000EAFF0E0EE926000EEA22EECF14F2EDCF92
:1031900015F295DEF3CF25F2F4CF26F20C0133A918
:1031A00020D00201010EAE6F0201100EAD6FC1EC16
:1031B00010F00201070E3F6F2BEC8DF006C037F2C6
:1031C00007C038F208C039F209C03AF2740E0201A1
:1031D0003727350E3823060E3923000E3A2340993F
:1031E0000BD00201010EAE6F0201120EAD6FC1ECE9
:1031F00010F00201060E3F6FA4EF1FF03C2B000EF3
:103200003D2333A303D03C2B000E3D230201355157
:10321000335D3651345914E32B512D5D146E2E510C
:103220002C55156E3551335D166E34513655176E6B
:103230000C011650145C316F17501558326F0DD0B9
:103240003351355D0C01316F0201345136590C0197
:10325000326F010E315F000E325B0A0EE96E020E14
:10326000EA6EEE50385D2B6FEE5039592C6FEE50F0
:103270003A592D6FEE503B592E6F2BCC2FFC2CCC96
:1032800030FC3E6B3C513D1101E17BD0315132119C
:1032900001E176D0800E2E1512E131CC14F032CC43
:1032A00015F0166A176A14502B5D15502C591650DC
:1032B0002D5917502E5903E2010E3E6F3DD03CCCE4
:1032C00014F03DCC15F0166A176A2B0EE96E0C0E41
:1032D000EA6EEE501426EE501522EE501622EE50F5
:1032E00017221734000E171809E6D880000E145460
:1032F000000E1554000E1654000E17541DE23C51DA
:10330000315D186E32513D55196E1A6A1B6A19AE3D
:1033100002D01A681B681B502E19E8AE02D02E3559
:1033200008D02B51185C2C5119582D511A582E5178
:103330001B5802E3010E3E6F31CC14F032CC15F075
:10334000166A176A2E511718E8AE02D0173408D043
:1033500014502B5D15502C5916502D5917502E59BD
:103360000FE22F513C25186E30513D21196E193452
:1033700004E218500008000E195402E2010E3E6FDC
:103380001CD02B512C112D112E1103E1010E3E6F7B
:1033900014D0800E2E1511E131CC14F032CC15F082
:1033A000166A176A14502B5D15502C5916502D595A
:1033B00017502E5902E2010E3E6F3E510CE133B51B
:1033C00008D00201010EAE6F0201100EAD6FC1EC0C
:1033D00010F0A4EF1FF0060E331503E02BDDA4EF71
:1033E0001FF033B902D0A4EF1FF002013F510C0AC5
:1033F00001E17ED20B0A40E00F0A3EE0010A3CE008
:10340000020A3AE0010A38E00C0A01E086D2340EE2
:10341000E96E0C0EEA6EEE50061909E1EE5007193E
:1034200006E1EE50081903E1EE50091900E122E02F
:1034300006C238FC07C239FC08C23AFC09C23BFC90
:1034400034CC06F235CC07F236CC08F237CC09F290
:103450000201010EAE6F0201040EAD6FC1EC10F05F
:1034600038CC06F239CC07F23ACC08F23BCC09F260
:10347000A4EF1FF0070E3F6F0E512F5D0C01296F57
:1034800002010F5130590C012A6F800E2A150CE0F1
:10349000020129512B5D146E2C512A55156E1450C2
:1034A0000C01292715502A2329CC14F02ACC15F019
:1034B000166A176A060EE96E020EEA6EEE501424C2
:1034C000256FEE501520266FEE501620276FEE5018
:1034D0001720286F340EE96E0C0EEA6EEE50255D53
:1034E000146EEE502659156EEE502759166EEE509A
:1034F0002859176E0001800E171409E00201AE6B07
:103500000201100EAD6FC1EC10F0A4EF1FF002012C
:1035100031510E5D146E0F513255156E166A176AD1
:1035200015AE02D016681768060EE96E020EEA6E36
:103530001450EE5C0C01256F1550EE58266F165096
:10354000EE58276F1750EE58286F020131510E5D6B
:1035500032510F5911E229512B5D146E2C512A550D
:10356000156E166A176A14500C01255F1550265BFC
:103570001650275B1750285B250EE96E0C0EEA6E7D
:10358000EE500C01345D256FEE503559266FEE502C
:103590003659276FEE503759286F2835000E2819F5
:1035A00009E6D880000E2555000E2655000E275539
:1035B000000E285501E397D0020129512B5D146EAE
:1035C0002C512A55156E166A176A0C012551145C88
:1035D00026511558275116582851175801E283D003
:1035E000020124972499419131C229FC32C22AFC5C
:1035F0000C012551020131270C0126510201322311
:103600000C01295102010E5D0C012A5102010F59D2
:103610001BE331510E5D32510F5915E20E51315DF0
:10362000146E32510F55156E000114500201062719
:103630000001155002010723000E0823092331C29F
:103640000EF232C20FF22FD029512B5D146E2C5185
:103650002A55156E0E5114240C01296F02010F51C9
:1036600015200C012A6F020131510C01295D020164
:1036700032510C012A5917E229510201315D146EB1
:1036800032510C012A55156E000114500201062713
:103690000001155002010723000E0823092331C23F
:1036A0000EF232C20FF202012B51315D2C51325910
:1036B0000AE329512B5D146E2C512A55156E1450B6
:1036C000315F1550325B2B510E5D2C510F590AE3BF
:1036D00029512B5D146E2C512A55156E14500E5F16
:1036E00015500F5B3FD002010E51311902E10F510D
:1036F000321938E024A735D024A932D031510E5DDB
:10370000146E0F513255156E166A176A15AE02D037
:10371000166817681450065F1550075B1650085B53
:103720001750095B31510E5D32510F5914E2295186
:103730002B5D146E2C512A55156E166A176A15AE3C
:1037400002D0166817681450065F1550075B1650B4
:10375000085B1750095B31C20EF232C20FF241858D
:10376000248924872F51311902E1305132192FE178
:1037700041B715D02BEC8DF006C037F207C038F2F8
:1037800008C039F209C03AF2740E02013727350E2B
:103790003823060E3923000E3A23409918D0060E1E
:1037A000E96E020EEA6EEE500C01341909E1EE509A
:1037B000351906E1EE50361903E1EE50371900E1F4
:1037C00006E102012451010B02E040994197340EB9
:1037D000E96E0C0EEA6EEE500201065D146EEE50BC
:1037E0000759156EEE500859166EEE500959176EAE
:1037F000B5C2E9FFB6C2EAFF0E0EE926000EEA22C4
:103800000C011450EE5C3F6F1550EE58406F0201F2
:103810001451151106E10C013F51401102E0020163
:1038200041833FCC14F240CC15F2080E02013F5DFB
:103830002DE1060EE96E020EEA6EEE500C0134190F
:1038400009E1EE50351906E1EE50361903E1EE506C
:10385000371900E11AE102012451010B16E02BECAB
:103860008DF006C037F207C038F208C039F209C03F
:103870003AF2BA0E020137271A0E3823030E392303
:10388000000E3A234089090E3F6F31D0090E3F5D8B
:1038900016E10C0133B112D034CC06F235CC07F26C
:1038A00036CC08F237CC09F20201AE6B0201140EDD
:1038B000AD6FC1EC10F01AEC17F046D318D00A0E19
:1038C0003F5D15E1060EE96E020EEA6EEE500C0148
:1038D000341909E1EE50351906E1EE50361903E1CD
:1038E000EE50371900E102E11AEC17F02DD316D093
:1038F000060EE96E020EEA6EEE500C01341909E173
:10390000EE50351906E1EE50361903E1EE50371945
:1039100000E102E11AEC17F017D300D00C0133BB21
:1039200013D30B0E02013F5D01E10ED30A0E3F5D82
:1039300001E10AD30C0E3F5D01E106D3B751B81186
:1039400001E14ED20C01303504E22F510008000E87
:10395000305501E2E8D0B5C2E9FFB6C2EAFF0C0E6D
:10396000E926000EEA22EF50F00BE842E842E84276
:10397000E842040DF350146E156A2F51145C0F01C8
:10398000516F0C01305115580F01526F6FEC87F0D9
:103990000C012F510201B7270C0130510201B8234D
:1039A000B7510C01315D0201B8510C01325904E2EA
:1039B00031CCB7F232CCB8F20201B7510A27B85174
:1039C0000B23000E0C230D233351B725146E3451F5
:1039D000B821156E14502D5D15502E5946E2335105
:1039E0002D5D0C01296F020134512E590C012A6FF3
:1039F000010E2927000E2A2329CCC5F22ACCC6F2B3
:103A00000201C46B0201C269C36944C2C1F233C27C
:103A1000BFF234C2C0F2C5DB0C0129510201B75D0F
:103A20000201C56F0C012A510201B8590201C66F8B
:103A30000201C46B0201C269C36944C2C1F22BC254
:103A4000BFF22CC2C0F2ADDB0C0129510201B75DFF
:103A5000146EB8510C012A55156E02012B51142415
:103A6000336F2C511520346F15D0B7C2C5F2B8C2D0
:103A7000C6F20201C46B0201C269C36944C2C1F249
:103A800033C2BFF234C2C0F28CDB0201B75133271C
:103A9000B8513423221D01E1231D44E0B751225FB8
:103AA000B851235B165122250C01296F02011751D1
:103AB00023210C012A6F800E2A1504E002012269DD
:103AC000236930D00201233504E222510008000EA0
:103AD000235528E30C01295102010A270C012A5120
:103AE00002010B23000E0C230D230C0129510201AE
:103AF00033270C012A510201342333512D5D3451F7
:103B00002E590EE22B512D5D146E2E512C55156E33
:103B1000010E1426000E15221450335F1550345B2D
:103B2000226923695DD1303504E22F510008000E6F
:103B3000305501E355D10201B7510C012F25146E08
:103B40000201B8510C013021156E1450315D155031
:103B5000325909E22F51315D0201B76F0C0130512A
:103B600032590201B86FB5C2E9FFB6C2EAFF0C0EC6
:103B7000E926000EEA22EF50F00BE842E842E84264
:103B8000E842040DF3500F01516F526B6FEC87F058
:103B9000020133510C012F25166E020134510C0124
:103BA0003021176E16500201B725146E1750B82138
:103BB000156E14502D5D15502E596EE233512D5D4A
:103BC000146E2E513455156E010E1426000E15225A
:103BD0000C012F51145C296F305115582A6F800E3B
:103BE0002A1531E129CCC5F22ACCC6F20201C46BF8
:103BF0000201C269C36944C2C1F2020133510C011E
:103C00002F250201BF6F020134510C013021020146
:103C1000C06FC7DA0C0129510201B75D0201C56FFF
:103C20000C012A510201B8590201C66F0201C46B8E
:103C30000201C269C36944C2C1F22BC2BFF22CC2E5
:103C4000C0F2AFDA28D0B7C2C5F2B8C2C6F20201DC
:103C5000C46B0201C269C36944C2C1F2020133519B
:103C60000C012F25146E020134510C013021156E08
:103C700002012B512D5D166E2E512C55176E010E23
:103C80001626000E172202011650145CBF6F175043
:103C90001558C06F86DA18D0B7C2C5F2B8C2C6F2DE
:103CA0000201C46B0201C269C36944C2C1F20201CC
:103CB00033510C012F250201BF6F020134510C0159
:103CC00030210201C06F6DDA0201221D01E1231DC6
:103CD00009E12FCC22F230CC23F2B7C216F2B8C2DF
:103CE00017F27ED022510C012F5D020123510C01ED
:103CF00030593DE22F510201B725146E0C013051AD
:103D00000201B821156E22511625166E2351172176
:103D1000176E1450165C155017580FE30C012F51F5
:103D20000201B725186E0C0130510201B821196E3D
:103D30002251185C2351195805E2B7C216F2B8C2D5
:103D400017F210D022511625146E23511721156E2B
:103D50000C012F51145C0201166F0C0130511558E3
:103D60000201176F2FCC22F230CC23F239D02F5121
:103D70000201B725146E0C0130510201B821156EF5
:103D800022511625166E23511721176E1450165CFA
:103D90001550175825E222511625146E235117216C
:103DA000156E0C012F51145C3051155819E32F5129
:103DB0000201B725186E0C0130510201B821196EAD
:103DC0002251185C166E23511958176E1651165C45
:103DD000146E17511758156E1450162715501723C7
:103DE0000C013C513D1124E0070E02013F5D04E04F
:103DF00033C235F234C236F240AF0BD00201010EAD
:103E0000AE6F0201100EAD6FC1EC10F0B1EC00F01E
:103E10000FD0408F40BD0CD0408D36EC8DF006C0E9
:103E20003DF207C03EF20F0E02013D27000E3E2379
:103E30000C0133A189D00AC214F00BC215F00CC2D8
:103E400016F00DC217F0142A000E152216221722A2
:103E50003CCC18F03DCC19F01A6A1B6A380EE96E9A
:103E60000C0EEA6EEE501826EE501922EE501A2271
:103E7000EE501B221450181809E11550191806E1CC
:103E800016501A1803E117501B1800E15DE10201FA
:103E90000A2B000E0B230C230D233F51090A41E08E
:103EA000010A1EE00F0A0EE0010A01E044D00C0EE8
:103EB0003F6F0201010EAE6F0201110EAD6FC1EC3A
:103EC00010F042D00B0E3F6F36EC8DF006C03DF285
:103ED00007C03EF21F0E02013D27000E3E232CD0EC
:103EE000060EE96E020EEA6EEE500C01341909E17D
:103EF000EE50351906E1EE50361903E1EE50371950
:103F000000E10BE10201AE6B0201100EAD6FC1ECDE
:103F100010F01AEC17F018D003D002010A0E3F6F10
:103F20000BD00201AE6B0201100EAD6FC1EC10F0B0
:103F30001AEC17F009D000D00201010EAE6F020199
:103F4000100EAD6FC1EC10F01200B9C245F26AEC70
:103F500000F00201BA51BB1103E1010EBA6FBB6B55
:103F600029512D5D0C01006F02012A512E590C01BF
:103F7000016F010E005F000E015B0201BA51BC250A
:103F8000146EBB51BD21156E0C011450005D15500F
:103F9000015902E2000E04D1B1EC00F0030E02015F
:103FA000BE1502E1030EBE13BCC204FCBDC205FC7B
:103FB000BA51BC25146EBB51BD21156E14500C01B5
:103FC000005F1550015B0201BEA314D0BEA10DD04D
:103FD00000CC14F001CC15F0D890153214321450E6
:103FE0000C0104271550052305D00C0100510427AE
:103FF00001510523020129510C010425006F020122
:104000002A510C010521016F010E0027000E01232A
:1040100033C202FC34C203FC0201221D01E1231D54
:1040200022E022511625146E23511721156E1450CB
:104030000C01022715500323025102012D5D0C01D2
:10404000035102012E590FE22B512D5D146E2E519A
:104050002C55156E010E1426000E152214500C015D
:10406000025F1550035B0C0102510201355D0C012A
:1040700003510201365917E20C0100510201355D6E
:104080000C010151020136590DE2BEA503D0000E0C
:1040900087D008D000CC35F201CC36F200CC33F218
:1040A00001CC34F226D035510C01025D02013651AB
:1040B0000C01035916E2005102012B5D0C01015164
:1040C00002012C590DE2BEA503D0000E69D008D024
:1040D00000CC35F201CC36F200CC33F201CC34F214
:1040E00008D000CC35F201CC36F200CC33F201CC52
:1040F00034F2020135510C01025D020136510C010E
:10410000035930E2040E0201BE152CE02B510C01C4
:10411000025D0201C56F02012C510C01035902011D
:10412000C66F44C2C4F22BC2C2F22CC2C3F244C254
:10413000C1F200CCBFF201CCC0F233D8020135513C
:10414000335D365134590EE20C01005102012B5DF2
:10415000146E2C510C010155156E14500201335F81
:104160001550345B00CC2BF201CC2CF229C20EF29C
:104170002AC20FF229C231F22AC232F229C22FF228
:104180002AC230F2070E02013F5D08E10201010E72
:10419000AE6F0201100EAD6FC1EC10F0010E00D039
:1041A00012000201C45131E0010A01E05DD0C151A9
:1041B00016E0010A01E028D0C5C2E6FFC6C2E6FF4C
:1041C000C2C2E6FFC3C2E6FFBFC2E6FFC0C2E6FF4F
:1041D0008AEC82F0146E060EE15E145015D0BF1DFD
:1041E00001E1C01D06E0BFC27BF4C0C27CF4EEEC6E
:1041F00058F0C5C292F4C6C293F4C2C290F4C3C2CE
:1042000091F4EBEC5BF000D02FD0C15118E0010A23
:1042100001E029D0C21D01E1C31D06E0C2C27DF448
:10422000C3C27EF40EEC59F0C5C28DF4C6C28EF442
:10423000BFC28BF4C0C28CF49BEC5BF014D0C5C23F
:1042400089F4C6C28AF4C2C287F4C3C288F4BFC26A
:1042500085F4C0C286F41EEC5AF07AEC5BF00009DB
:1042600001E1FBD700D000D012000201C95118E0D3
:10427000010A01E069D0CDC2E6FFCEC2E6FFCAC2A4
:10428000E6FFCBC2E6FFCCC2E6FFC7C2E6FFC8C26C
:10429000E6FFB5EC82F0146E070EE15E145054D0C8
:1042A000C71D01E1C81D06E0C7C27BF4C8C27CF48B
:1042B000EEEC58F0100E0C01106F116B0201CD5195
:1042C000CE1141E00C0110510201CD5D0C011151E4
:1042D0000201CE5904E2CDC210FCCEC211FC10CCBA
:1042E000E6FF11CCE6FFCAC2E6FFCBC2E6FFCCC2B6
:1042F000E6FF000EE66E0C0EE66EB5EC82F0146E74
:10430000070EE15E145010CC92F411CC93F404012A
:10431000000E906F0C0E916FEBEC5BF010CC14F074
:1043200011CC15F0166A14500201CA271550CB2380
:104330001650CC230C0110510201CD5F0C0111511C
:0A4340000201CE5BBBD700D01200D3
:06434A00490E050199195E
:1043500005E19A5103E19B5101E19C5101E174D3C4
:10436000480E991905E19A5103E19B5101E19C51D5
:1043700001E167D3470E991905E19A5103E19B5179
:1043800001E19C5101E156D3460E991905E19A517C
:1043900003E19B5101E19C5101E145D3450E99197F
:1043A00005E19A5103E19B5101E19C5101E135D3B3
:1043B000440E991905E19A5103E19B5101E19C5189
:1043C00001E124D3430E991905E19A5103E19B5170
:1043D00001E19C5101E113D3420E991905E19A5173
:1043E00003E19B5101E19C5101E103D3330E991983
:1043F00005E19A5103E19B5101E19C5101E1EFD2AA
:10440000310E991905E19A5103E19B5101E19C514B
:1044100001E1DED2300E991905E19A5103E19B5179
:1044200001E19C5101E1CDD22F0E991905E19A517C
:1044300003E19B5101E19C5101E1BDD22E0E99197E
:1044400005E19A5103E19B5101E19C5101E1B0D298
:104450002D0E991905E19A5103E19B5101E19C51FF
:1044600001E1A3D22C0E991905E19A5103E19B5168
:1044700001E19C5101E196D22B0E991905E19A5167
:1044800003E19B5101E19C5101E189D22A0E991966
:1044900005E19A5103E19B5101E19C5101E17CD27C
:1044A000290E991905E19A5103E19B5101E19C51B3
:1044B00001E16FD2280E991905E19A5103E19B5150
:1044C00001E19C5101E162D2270E991905E19A514F
:1044D00003E19B5101E19C5101E155D2260E99194E
:1044E00005E19A5103E19B5101E19C5101E148D260
:1044F000250E991905E19A5103E19B5101E19C5167
:1045000001E13BD2240E991905E19A5103E19B5137
:1045100001E19C5101E12ED2230E991905E19A5136
:1045200003E19B5101E19C5101E121D2220E991935
:1045300005E19A5103E19B5101E19C5101E114D243
:10454000210E991905E19A5103E19B5101E19C511A
:1045500001E107D2200E991905E19A5103E19B511F
:1045600001E19C5101E1FAD11F0E991905E19A511F
:1045700003E19B5101E19C5101E1EDD11E0E99191E
:1045800005E19A5103E19B5101E19C5101E1E0D128
:104590001D0E991905E19A5103E19B5101E19C51CE
:1045A00001E1D3D11C0E991905E19A5103E19B5108
:1045B00001E19C5101E1C6D11B0E991905E19A5107
:1045C00003E19B5101E19C5101E1B5D11A0E99190A
:1045D00005E19A5103E19B5101E19C5101E1A4D114
:1045E000190E991905E19A5103E19B5101E19C5182
:1045F00001E193D1180E991905E19A5103E19B51FC
:1046000001E19C5101E183D1170E991905E19A51FD
:1046100003E19B5101E19C5101E173D1160E9919FF
:1046200005E19A5103E19B5101E19C5101E166D101
:10463000150E991905E19A5103E19B5101E19C5135
:1046400001E152D1140E991905E19A5103E19B51F0
:1046500001E19C5101E13ED1130E991905E19A51F6
:1046600003E19B5101E19C5101E12AD1120E9919FC
:1046700005E19A5103E19B5101E19C5101E115D102
:10468000110E991905E19A5103E19B5101E19C51E9
:1046900001E101D1100E991905E19A5103E19B51F5
:1046A00001E19C5101E1ECD00F0E991905E19A51FD
:1046B00003E19B5101E19C5101E1D8D00E0E991903
:1046C00005E19A5103E19B5101E19C5101E1C3D005
:1046D0000D0E991905E19A5103E19B5101E19C519D
:1046E00001E1B6D00C0E991905E19A5103E19B51F5
:1046F00001E19C5101E1A5D00B0E991905E19A51F8
:1047000003E19B5101E19C5101E194D00A0E9919FA
:1047100005E19A5103E19B5101E19C5101E183D0F4
:10472000090E991905E19A5103E19B5101E19C5150
:1047300073E0080E991905E19A5103E19B5101E1DB
:104740009C5163E0070E991905E19A5103E19B51D1
:1047500001E19C5153E0060E991905E19A5103E1DC
:104760009B5101E19C5143E0050E991905E19A51D5
:1047700003E19B5101E19C5137E0040E991905E1D9
:104780009A5103E19B5101E19C512CE0030E9919D0
:1047900005E19A5103E19B5101E19C5120E0020E99
:1047A000991905E19A5103E19B5101E19C510DE0FA
:1047B000010E991905E19A5103E19B5101E19C51C8
:1047C00001E045D1E5EC45F05DD10501BD0EB76FC7
:1047D000F00EB86F000EB96FAAEC3BF053D128EC85
:1047E00046F050D151D94ED110EC43F04BD1070EC9
:1047F0000301E56FE66BD6EC43F044D1060E0301EE
:10480000E56FE66BD6EC43F03DD1050E0301E56F95
:10481000E66BD6EC43F036D1040E0301E56FE66B90
:10482000D6EC43F02FD1030E0301E56FE66BD6EC17
:1048300043F028D1020E0301E56FE66BD6EC43F09E
:1048400021D1010E0301E56FE66BD6EC43F01AD1DE
:10485000FEEC44F017D1010E0301E96FEA6B040E80
:104860000301E76FE86B51EC44F00CD10301E96BF5
:10487000EA6B040E0301E76FE86B51EC44F002D1E0
:10488000010E0301E96FEA6B030E0301E76FE86BAA
:1048900051EC44F0F7D00301E96BEA6B030E03011E
:1048A000E76FE86B51EC44F0EDD0010E0301E96FC6
:1048B000EA6B020E0301E76FE86B51EC44F0E2D0C3
:1048C0000301E96BEA6B020E0301E76FE86B51EC41
:1048D00044F0D8D0010E0301E96FEA6B0301E76FE2
:1048E000E86B51EC44F0CED00301E96BEA6B010EAA
:1048F0000301E76FE86B51EC44F0C4D06AEC43F07D
:10490000C1D00301E56BE66BD6EC43F0BBD00301ED
:10491000E36BE46B81EC43F0B5D0010E0301E36F70
:10492000E46B81EC43F0AED0020E0301E36FE46B65
:1049300081EC43F0A7D0030E0301E36FE46B81EC3D
:1049400043F0A0D0D7EC44F09DD06CEC46F09AD068
:10495000F0EC48F097D06EEC48F094D085EC48F03D
:1049600091D06AEC48F08ED06BEC48F08BD06CECB8
:1049700048F088D025EC49F085D0D3EC47F082D0C0
:1049800069EC47F07FD080EC47F07CD09CEC47F09E
:1049900079D0A7EC47F076D0B2EC47F073D0BDECFD
:1049A00047F070D0C8EC47F06DD053EC48F06AD0B7
:1049B00055EC48F067D00301F36BF46B6DEC48F0F5
:1049C00061D0010E0301F36FF46B6DEC48F05AD027
:1049D000020E0301F36FF46B6DEC48F053D0050148
:1049E000B20EB76FF00EB86F000EB96FAAEC3BF0C5
:1049F00049D00301EF6BF06B51EC48F043D0010E4E
:104A00000301EF6FF06B51EC48F03CD0020E030154
:104A1000EF6FF06B51EC48F035D00301F16BF26BA6
:104A200052EC48F02FD0010E0301F16FF26B52EC03
:104A300048F028D0020E0301F16FF26B52EC48F0FF
:104A400021D0C2EC48F01ED0D9EC48F01BD0040EA7
:104A500002016C6F6D6B0201AD0E696FF00E6A6F33
:104A6000000E6B6F03018351E96EEA6AD890E93654
:104A7000EA367F0EE926030EEA22EE52EFCF68F205
:104A80004EEC05F000D0120002017E0E626F0301B1
:104A90008351E96EEA6AD890E936EA367F0EE92654
:104AA000030EEA22EE52EFCF61F214EC04F000D0D4
:104AB00012000301836B020E835D5AE28351E96E9B
:104AC000EA6AD890E936EA367F0EE926030EEA2232
:104AD000EF6A0201080E4D6F500E02014B6F4C6BD6
:104AE00002014A6B0201466B476B486B496B5FECF6
:104AF00002F0E66E03018351E96EEA6AD890E93666
:104B0000EA367F0EE926030EEA22EE52E552E7501E
:104B1000EF6E1469156983517F0DF3CF14F0F4CF54
:104B200015F0166A176AFE0E14261E0E1522000EC8
:104B30001622172214C07BF415C07CF4EEEC58F05A
:104B4000F3CF00FCF4CF01FC7F0E0401926F936B56
:104B50000401000E906F030E916FEBEC5BF000CC44
:104B60007BF401CC7CF4EEEC58F00301832BA3D74B
:104B7000836B12000C01B36B020EB35D01E385D0B1
:104B8000B351E96EEA6AD890E936EA367F0EE92633
:104B9000030EEA22EE52EF50FE0801E173D0B3514A
:104BA000E96EEA6AD890E936EA367F0EE926030E06
:104BB000EA22EE52EFCF4EF220EC03F000093BE088
:104BC000B3CC9DF563D803018351E96EEA6AD890AE
:104BD000E936EA367F0EE926030EEA22EF6AFF0E77
:104BE000145D06E014C3D6F0A3EC4CF00301146985
:104BF000FF0E155D06E015C3D6F0A3EC4CF00301E3
:104C000015690201040EBE6F0201BC6BBD6B010E83
:104C10000201BA6FBB6B03018351E96EEA6AD89057
:104C2000E936EA367F0EE926030EEA22EE52EFCF8E
:104C3000B9F2A5EC1FF00C01B351E96EEA6AD89005
:104C4000E936EA367F0EE926030EEA22EF5016E136
:104C5000B351E96EEA6AD890E936EA367F0EE92662
:104C6000030EEA22EE52EFCF77F2A7EC06F0F3CF75
:104C700014F0F4CF15F01450151004E0B3CC9DF5EA
:104C800005D863D80C01B32B77D7120003018351E9
:104C900005019D5D01E158D0030183517F0DF3CFE4
:104CA00014F0F4CF15F0166A176AFE0E14261E0EC5
:104CB0001522000E1622172214C07BF415C07CF4B6
:104CC000EEEC58F0F3CF00FCF4CF01FC7F0E0401B2
:104CD000926F936B0401000E906F030E916FEBECDB
:104CE0005BF000CC7BF401CC7CF4EEEC58F00501D9
:104CF0009D517F0DF3CF14F0F4CF15F0166A176AAB
:104D0000FE0E14261E0E1522000E1622172214C0A7
:104D10007DF415C07EF40EEC59F0F3CF00FCF4CF17
:104D200001FC7F0E04018D6F8E6B0401000E8B6FF2
:104D3000030E8C6F9BEC5BF000CC7DF401CC7EF419
:104D40000EEC59F09DC583F312000C01010E916F1A
:104D500003018351E96EEA6AD890E936EA367F0E9C
:104D6000E926030EEA22EF500B0A02E1BBEF32F014
:104D7000010A02E17EEF32F0030A02E149EF32F06C
:104D8000010A02E1C6EF30F00F0A02E1A9EF2EF0AE
:104D9000010A02E172EF2EF0030A02E136EF2DF074
:104DA000010A02E123EF2DF0070A02E1CAEF2CF01D
:104DB000010A02E1FCEF2AF0030A67E0010A02E0BF
:104DC000E9EF32F08351E96EEA6AD890E936EA36C3
:104DD0007F0EE926030EEA22EE52EFCF77F2A7EC20
:104DE00006F0F3CF8BFCF4CF8CFC0C018B518C11B3
:104DF0004AE003011A0E106F030E116F8351E96E22
:104E0000EA6AD890E936EA367F0EE926030EEA22EE
:104E1000010EEF6E1769166B2BEC8DF006C008F3D0
:104E200007C009F308C00AF309C00BF38A0E030197
:104E30000827F00E09231B0E0A23000E0B230C6912
:104E40000D690E690F69006B016B026B036B7E6B62
:104E50000201050EBE6F0201BC6BBD6B010E0201AB
:104E6000BA6FBB6B03018351E96EEA6AD890E936E9
:104E7000EA367F0EE926030EEA22EE52EFCFB9F2B0
:104E8000A5EC1FF002D0E9EF32F00201A66B02019F
:104E9000A46BA56B0201A26BA36B02010A0EA16FAA
:104EA00003018351E96EEA6AD890E936EA367F0E4B
:104EB000E926030EEA22EE52EFCFA0F259EC0CF0F5
:104EC000F3CF14F0F4CF15F00001141C01E1151C10
:104ED00065E103018351E96EEA6AD890E936EA3662
:104EE0007F0EE926030EEA22EE52EFCF80F2E2ECCB
:104EF00007F0F3CF14F0F4CF15F01450151011E1B2
:104F00000301050E186F8351E96EEA6AD890E936FD
:104F1000EA367F0EE926030EEA22070EEF6E0C0139
:104F2000916B2BEC8DF003010851065C146E095156
:104F30000758156E0A510858166E0B510958176E0E
:104F40001734000E171809E6D880000E1454000E0E
:104F50001554000E1654000E17541EE28351E96ECC
:104F6000EA6AD890E936EA367F0EE926030EEA228D
:104F7000EE52EFCF50F238EC03F003018351E96EAB
:104F8000EA6AD890E936EA367F0EE926030EEA226D
:104F90000B0EEF6E0C01916BE9EF32F02BEC8DF004
:104FA00006C008F307C009F308C00AF309C00BF3F1
:104FB0008A0E03010827F00E09231B0E0A23000E98
:104FC0000B230201A66B0201A46BA56B0201A26B6D
:104FD000A36B0201200EA16F03018351E96EEA6AFF
:104FE000D890E936EA367F0EE926030EEA22EE5221
:104FF000EFCFA0F259EC0CF0F3CF8BFCF4CF8CFC8C
:105000000C01050ED8808B55000E8C5503E2050E61
:105010008B6F8C6B010E8B2502017E6F000E0C01D5
:105020008C2102017F6F02011A0E7C6F030E7D6FCF
:1050300003018351E96EEA6AD890E936EA367F0EB9
:10504000E926030EEA22EE52EFCF7BF22FEC07F0B7
:10505000030EE66EE66ADB0EE66EE90EE66E000E05
:10506000E66E1A0EE66E030EE66E6BEC82F0146EC0
:10507000070EE15E1450000903E10301186B2CD008
:10508000040EE66EE66AD60EE66EE90EE66E000ED9
:10509000E66E1A0EE66E030EE66E6BEC82F0146E90
:1050A000070EE15E1450000904E10301010E186FC0
:1050B00013D00301070E186F8351E96EEA6AD89086
:1050C000E936EA367F0EE926030EEA22070EEF6E76
:1050D0000C01916BE9EF32F00201A66B0201A46BA7
:1050E000A56B0201A26BA36B0201200EA16F03014D
:1050F0008351E96EEA6AD890E936EA367F0EE926EE
:10510000030EEA22EE52EFCFA0F259EC0CF0F3CFEF
:105110008BFCF4CF8CFC0201A66B8BCCA4F28CCC64
:10512000A5F20201A26BA36B02013F0EA16F030166
:105130008351E96EEA6AD890E936EA367F0EE926AD
:10514000030EEA22EE52EFCFA0F259EC0CF0F3CFAF
:105150008DFCF4CF8EFC0C018D518B5D8E518C59E2
:1051600001E204D08DCC8BFC8ECC8CFC590ED88007
:105170008B55000E8C5513E20301050E186F8351F9
:10518000E96EEA6AD890E936EA367F0EE926030E20
:10519000EA22070EEF6E0C01916BE9EF32F08BCC37
:1051A0007EF28CCC7FF202011A0E7C6F030E7D6FB3
:1051B00003018351E96EEA6AD890E936EA367F0E38
:1051C000E926030EEA22EE52EFCF7BF22FEC07F036
:1051D000F3CF8DFCF4CF8EFC1A0E0C018D25E96EF9
:1051E000030E8E21EA6EEF6A05011A0E9F6F030E01
:1051F000A06F4FEC36F01A0EE66E030EE66E7EECF4
:1052000083F0E552E552F3CF8DFCF4CF8EFC0B0E0C
:10521000E66EE66ACB0EE66EE90EE66E000EE66E10
:105220001B0EE66E030EE66E6BEC82F0146E070E3C
:10523000E15E1450000920E103011B0E846F030E90
:10524000856F53EC3CF00301176F185103E1080E12
:10525000186F02D0090E186F8351E96EEA6AD89070
:10526000E936EA367F0EE926030EEA22020EEF6ED9
:105270000C01916BE9EF32F08DCCE9FF8ECCEAFFA7
:10528000E906000EEA5A1A0EE926030EEA22EF504A
:105290002F0809E000011B0ECF6F030ED06F88ECC2
:1052A00049F00301146FFF0E0301145D4CE18DCC36
:1052B000E9FF8ECCEAFFE906000EEA5A1A0EE9264B
:1052C000030EEA22EF502F080EE00C018DCCE9FF0F
:1052D0008ECCEAFF8D2B000E8E231A0EE926030ECC
:1052E000EA222F0EEF6EC10EE66EE90EE66E000E9C
:1052F000E66E1A0E0C018D25146E030E8E21156EAE
:1053000014C0E6FF15C0E6FF65EC83F0166E050ECF
:10531000E15E1650C10EE66EE90EE66E000EE66E18
:105320008CEC83F0E552E552E55207500C018D27D5
:1053300008508E2300011B0ECF6F030ED06F88EC38
:1053400049F00301146F1A0E0C018D25926F030EA4
:105350008E21936F010E925F000E935B1A0E9219CD
:1053600002E1030E93190CE092CCE9FF93CCEAFF23
:10537000EF502E0801E104D09207000E935BEED7A8
:10538000922B000E93230301196B0B0EE76E191974
:10539000E8AE02D0E73402D0E750195D42E2690E70
:1053A000146E1C0E156E010E166E19C317F0186AD6
:1053B000196A17AE02D018681968030E0C6E0D6AD0
:1053C0000E6A17C007F018C008F019C009F09BEC6E
:1053D0008DF004C017F005C018F006C019F0145085
:1053E0001724F36E15501820F46E16501920F86E1D
:1053F000F4CFF7FFF3CFF6FF0900F5CF1FF5090053
:10540000F5CF20F50800F5CF21F592CC1DF593CC12
:105410001EF51AEC68F0000901E103D00301192B15
:10542000B4D703011B0E846F030E856F53EC3CF061
:105430000301176FFF0E145D18E014C3F2F03AEC8D
:1054400052F0F350020B11E014C3FDF068EC54F07D
:10545000F3CFD4F0F4CFD5F0010E0001D427000E25
:10546000D5231AEC4CF00301156F0201A66B020163
:10547000A46BA56B0201A26BA36B0201200EA16FAE
:1054800003018351E96EEA6AD890E936EA367F0E65
:10549000E926030EEA22EE52EFCFA0F259EC0CF00F
:1054A000F3CF8BFCF4CF8CFC0C018B518C115BE0A7
:1054B0000301010E166F02018F0E796F0C0E7A6FC9
:1054C00003018351E96EEA6AD890E936EA367F0E25
:1054D000E926030EEA22EE52EFCF78F2D9EC06F07D
:1054E0000C018B07000E8C5B620E8B5D000E8C59DD
:1054F00013E30301050E186F8351E96EEA6AD89031
:10550000E936EA367F0EE926030EEA22070EEF6E31
:105510000C01916BE9EF32F08BCC7EF28CCC7FF2F8
:1055200002011A0E7C6F030E7D6F03018351E96E39
:10553000EA6AD890E936EA367F0EE926030EEA22B7
:10554000EE52EFCF7BF22FEC07F0F3500301102760
:10555000F450112310C3E9FF11C3EAFF102B000E12
:105560001123260EEF6E0201A66B0201A46BA56B40
:105570000201A26BA36B02010A0EA16F030183510A
:10558000E96EEA6AD890E936EA367F0EE926030E1C
:10559000EA22EE52EFCFA0F259EC0CF0F3CF8BFCE5
:1055A000F4CF8CFC010E0C018B2502017E6F000EE6
:1055B0000C018C2102017F6F02017C6B7D6B03016A
:1055C0008351E96EEA6AD890E936EA367F0EE92619
:1055D000030EEA22EE52EFCF7BF22FEC07F003012D
:1055E0008351E96EEA6AD890E936EA367F0EE926F9
:1055F000030EEA22020EEF6E0201A66B0201A46BFB
:10560000A56B0201A26BA36B02010A0EA16F03013D
:105610008351E96EEA6AD890E936EA367F0EE926C8
:10562000030EEA22EE52EFCFA0F259EC0CF0F3CFCA
:105630008BFCF4CF8CFC0C018B1D01E18C1D64E113
:1056400003018351E96EEA6AD890E936EA367F0EA3
:10565000E926030EEA22EE52EFCF80F2E2EC07F0E9
:10566000F3CF14F0F4CF15F01450151011E103012D
:10567000050E186F8351E96EEA6AD890E936EA366A
:105680007F0EE926030EEA22070EEF6E0C01916BE6
:105690002BEC8DF003010851065C146E095107587C
:1056A000156E0A510858166E0B510958176E1734AB
:1056B000000E171809E6D880000E1454000E155479
:1056C000000E1654000E17541EE28351E96EEA6A6A
:1056D000D890E936EA367F0EE926030EEA22EE522A
:1056E000EFCF50F238EC03F003018351E96EEA6A20
:1056F000D890E936EA367F0EE926030EEA220B0E31
:10570000EF6E0C01916B44D12BEC8DF006C008F3C9
:1057100007C009F308C00AF309C00BF38A0E03019E
:105720000827F00E09231B0E0A23000E0B230C0181
:10573000010E8B1901E18C5127E1020E02017E6FEF
:105740007F6B02017C6B7D6B03018351E96EEA6A1A
:10575000D890E936EA367F0EE926030EEA22EE52A9
:10576000EFCF7BF22FEC07F003018351E96EEA6A79
:10577000D890E936EA367F0EE926030EEA22030EB8
:10578000EF6E0C01916B04D10201A66B8BCCA4F2DD
:105790008CCCA5F20201A26BA36B02013A0EA16FA1
:1057A00003018351E96EEA6AD890E936EA367F0E42
:1057B000E926030EEA22EE52EFCFA0F259EC0CF0EC
:1057C000F3CF8DFCF4CF8EFC020E0C018D27000E62
:1057D0008E23916B100ED8808D55000E8E551DE2D4
:1057E000010E8B2502017E6F000E0C018C2102013F
:1057F0007F6F02017C6B7D6B03018351E96EEA6A66
:10580000D890E936EA367F0EE926030EEA22EE52F8
:10581000EFCF7BF22FEC07F0EFD68DCC7EF28ECC63
:105820007FF20201940E7C6F0C0E7D6F0301835199
:10583000E96EEA6AD890E936EA367F0EE926030E69
:10584000EA22EE52EFCF7BF22FEC07F08DCCE9FF8E
:105850008ECCEAFFE906000EEA5A940EE9260C0EF9
:10586000EA22EF6A0C018D518B5F8E518C5B906B3D
:105870009051146E156A030E145C000E155849E21F
:10588000DB0E146E1C0E156E010E166E90CC17F00A
:10589000186A196A030E0C6E0D6A0E6A17C007F0BB
:1058A00018C008F019C009F09BEC8DF004C017F087
:1058B00005C018F006C019F014501724F36E1550E7
:1058C0001820F46E16501920F86EF4CFF7FFF3CFBE
:1058D000F6FF0900F5CFE6FF0900F5CFE6FF080067
:1058E000F5CFE6FF940EE66E0C0EE66E2EEC83F01E
:1058F0001A6E050EE15E1A50000908E190CC9EF583
:10590000F8EC33F00C01010E916F03D00C01902BD9
:10591000AFD791511FE00201A66B0201A46BA56BEA
:105920000201A26BA36B02010A0EA16F0301835156
:10593000E96EEA6AD890E936EA367F0EE926030E68
:10594000EA22EE52EFCFA0F259EC0CF0F3CF8BFC31
:10595000F4CF8CFC010E0C018B2502017E6F000E32
:105960000C018C2102017F6F02017C6B7D6B0301B6
:105970008351E96EEA6AD890E936EA367F0EE92665
:10598000030EEA22EE52EFCF7BF22FEC07F034D673
:10599000E9EF32F0800E175D12E2030E186F8351AB
:1059A000E96EEA6AD890E936EA367F0EE926030EF8
:1059B000EA22070EEF6E0C01916BE9EF32F010C393
:1059C000E9FF11C3EAFFEF6A05011A0E9F6F030E8C
:1059D000A06F4FEC36F0F3CF10F3F4CF11F3080EB5
:1059E0000301185D10E18351E96EEA6AD890E93647
:1059F000EA367F0EE926030EEA22070EEF6E0C014F
:105A0000916BE9EF32F08351E96EEA6AD890E9369A
:105A1000EA367F0EE926030EEA22040EEF6E1651D7
:105A20000CE18351E96EEA6AD890E936EA367F0ED6
:105A3000E926030EEA22050EEF6E0C01916B0301BD
:105A4000166BE9EF32F0ADEC3CF0020802E1E9EF51
:105A500032F003018351E96EEA6AD890E936EA36FA
:105A60007F0EE926030EEA22050EEF6E8351E96EE2
:105A7000EA6AD890E936EA367F0EE926030EEA2272
:105A8000EE52EFCF77F2A7EC06F0F3CF14F0F4CF9D
:105A900015F0166A176A145003010C1909E1155024
:105AA0000D1906E116500E1903E117500F1900E108
